:020000040800F2
:1000000000500020358F0008858F0008858F00087C
:1000100000000000000000000000000000000000E0
:1000200000000000000000000000000089890008B6
:1000300000000000000000008B8900088D89000886
:10004000858F0008858F000899890008858F000832
:10005000858F0008858F0008858F0008A989000812
:10006000858F0008858F0008B5890008C5890008BC
:10007000858F0008858F0008858F0008858F000810
:10008000E9890008F9890008858F00080000000050
:10009000858F0008858F0008858F0008858F0008F0
:1000A000858F0008858F0008858F0008858F0008E0
:1000B000118A0008218A0008858F0008858F0008B2
:1000C00010B5064C2378002B07D1054B002B02D02E
:1000D000044800E000BF0123237010BDF0010020A0
:1000E0000000000034B20008044B10B5002B03D010
:1000F0000349044800E000BF10BDC04600000000F6
:10010000F401002034B200080023C25C0133002A4D
:10011000FBD1581E7047000002B4714649084900DF
:10012000095C49008E4402BC7047C0460022430867
:100130008B4274D303098B425FD3030A8B4244D3AF
:10014000030B8B4228D3030C8B420DD3FF220902F1
:1001500012BA030C8B4202D31212090265D0030BB0
:100160008B4219D300E0090AC30B8B4201D3CB03A6
:10017000C01A5241830B8B4201D38B03C01A5241E8
:10018000430B8B4201D34B03C01A5241030B8B42EA
:1001900001D30B03C01A5241C30A8B4201D3CB02D5
:1001A000C01A5241830A8B4201D38B02C01A5241BA
:1001B000430A8B4201D34B02C01A5241030A8B42BD
:1001C00001D30B02C01A5241CDD2C3098B4201D3D5
:1001D000CB01C01A524183098B4201D38B01C01A53
:1001E000524143098B4201D34B01C01A52410309CA
:1001F0008B4201D30B01C01A5241C3088B4201D379
:10020000CB00C01A524183088B4201D38B00C01A25
:10021000524143088B4201D34B00C01A5241411A4C
:1002200000D20146524110467047FFE701B5002059
:1002300000F0F0F802BDC0460029F7D076E770471D
:1002400003460B437FD4002243088B4274D3030937
:100250008B425FD3030A8B4244D3030B8B4228D3D8
:10026000030C8B420DD3FF22090212BA030C8B42FE
:1002700002D31212090265D0030B8B4219D300E09E
:10028000090AC30B8B4201D3CB03C01A5241830B23
:100290008B4201D38B03C01A5241430B8B4201D3D3
:1002A0004B03C01A5241030B8B4201D30B03C01AFC
:1002B0005241C30A8B4201D3CB02C01A5241830A76
:1002C0008B4201D38B02C01A5241430A8B4201D3A5
:1002D0004B02C01A5241030A8B4201D30B02C01ACF
:1002E0005241CDD2C3098B4201D3CB01C01A524136
:1002F00083098B4201D38B01C01A524143098B42BF
:1003000001D34B01C01A524103098B4201D30B01A7
:10031000C01A5241C3088B4201D3CB00C01A5241CC
:1003200083088B4201D38B00C01A524143088B4291
:1003300001D34B00C01A5241411A00D2014652412A
:10034000104670475DE0CA0F00D04942031000D349
:100350004042534000229C4603098B422DD3030A9E
:100360008B4212D3FC22890112BA030A8B420CD3AE
:10037000890192118B4208D3890192118B4204D3D7
:1003800089013AD0921100E08909C3098B4201D357
:10039000CB01C01A524183098B4201D38B01C01A91
:1003A000524143098B4201D34B01C01A5241030908
:1003B0008B4201D30B01C01A5241C3088B4201D3B7
:1003C000CB00C01A524183088B4201D38B00C01A64
:1003D0005241D9D243088B4201D34B00C01A52413B
:1003E000411A00D20146634652415B10104601D3C8
:1003F0004042002B00D54942704763465B1000D352
:10040000404201B5002000F005F802BD0029F8D0F7
:1004100016E770477047C0468446101C62468C46FB
:10042000191C634600E0C0461FB501F053FC0028CC
:1004300001D40021C8421FBD10B501F0ABFB404202
:10044000013010BD10B501F045FC002801DB002093
:1004500010BD012010BDC04610B501F03BFC0028C6
:1004600001DD002010BD012010BDC04610B501F017
:10047000CDFB002801DC002010BD012010BDC046CE
:1004800010B501F0C3FB002801DA002010BD0120E7
:1004900010BDC046002B11D1002A0FD1002900D178
:1004A000002802D00021C943081C07B4024802A159
:1004B0004018029003BDC0465DFFFFFF03B46846CD
:1004C00001B5029800F01EF8019B9E4602B00CBCDC
:1004D0007047C0469E2110B5C905041C02F0E0FB20
:1004E000002803D1201C00F0D7FC10BD9E21201C49
:1004F000C90500F00DFB00F0CFFC80231B069C46D5
:100500006044F2E7F0B54F464646D646C0B5040013
:1005100082B00D00914698468B422FD82CD0414690
:10052000484602F0E5FB29000600200002F0E0FB4F
:10053000331A9C46203B9A4600D576E04B465246FD
:1005400093401F004B46624693401E00AF4228D89E
:1005500025D05346A41BBD41002B00DA7BE00022CE
:1005600000230092019301235246934001930123FB
:1005700062469340009318E08242D0D900220023C3
:10058000009201930A9B002B01D01C605D600098D3
:10059000019902B01CBC90469946A246F0BDA34208
:1005A000D7D900220023009201936346002BE9D0A3
:1005B000FB079846414672080A437B0866460EE0F0
:1005C000AB4201D1A2420CD8A41A9D4101202419AA
:1005D0006D410021013E24184D41002E06D0AB4252
:1005E000EED9013E24196D41002EF8D100980199F1
:1005F000534600196941002B23DB2B005246D340A0
:100600002A006446E2401C0053461500002B2DDBF7
:1006100026005746BE40330026006746BE403200E3
:10062000801A994100900191ACE7624620239B1A01
:100630004A46DA406146130042468A4017001F438B
:1006400080E7624620239B1A2A0066469A402300D0
:10065000F3401343D4E76246202300219B1A002273
:10066000009101920122DA40019280E72023624644
:1006700026009B1ADE402F00B0466646B74046462D
:100680003B003343C8E7C046F8B557464E4645469B
:10069000DE464402E0B546008846640A360EC70FBF
:1006A000002E63D0FF2E24D08023E400DB041C4303
:1006B000002399469B467F3E434642465D02D20F49
:1006C0005B006D0A1B0E9046924665D0FF2B55D0FD
:1006D00080220021ED00D2047F3B1543F61A4346E9
:1006E0004A467B400F2A00D98DE06D48920082581F
:1006F0009746002C54D108239946063BFF269B467B
:10070000DAE70025534602291BD0032900D1BFE0B8
:10071000012928D030007F30002820DD6A0704D06E
:100720000F222A40042A00D004352A0103D53000C4
:100730005C4A80301540FE2803DCAC01640AC2B27A
:1007400001E0FF2200246402D205600ADB071043A7
:1007500018433CBC90469946A246AB46F8BD0122E0
:10076000101A1B287CDD00220024ECE7002C1DD190
:1007700004239946033B00269B469DE7FF3E002D40
:1007800020D1022143464A467B400A430F2AD8D84B
:100790004548920082589746002D19D10121F1E772
:1007A0000C239946093BFF269B4685E7200002F073
:1007B00081FA7626431F9C4000237642361A9946DA
:1007C0009B4679E74A4603231A439146032186E76D
:1007D000280002F06FFA431F36189D40763600213C
:1007E0007DE780240023E403FF22ACE7002580237B
:1007F000DB031C4228D01D4226D12B435C02640A35
:100800004346FF229FE762016C01A24224D21B21D2
:100810000025013E012710006D005200002801DB79
:10082000944201D8121B3D4301390029F3D1140031
:10083000621E944125436DE7BA465946250053464A
:10084000022900D061E77CE78023DB031C436402BC
:10085000640A3B00FF2276E7121B1A210125D9E723
:100860009E362A00B5402C00C240651EAC411443A0
:10087000620704D00F222240042A00D0043462010F
:1008800003D4A401640A00225DE7012200245AE790
:100890008024E4032C436402640AFF2253E7C04629
:1008A00078B30008FFFFFFF7B8B30008F0B54E4675
:1008B00057464546DE46E0B543025B0A450083B035
:1008C0000F1C99462D0EC60F002D57D0FF2D24D09A
:1008D0008020DB00C0041843002381469A469B46D3
:1008E0007F3D7C027A00FB0F640A120E984623D0EB
:1008F000FF2A4BD0E30080240020E4047F3A1C430D
:10090000AD186B1C47460193534677403A000F2BB6
:1009100048D87D499B00CB589F46002B00D085E0EE
:1009200008339A46063B9B467C027A00FB0FFF2564
:10093000640A120E9846DBD1002C00D090E052469B
:1009400001231A4392460120DBE74C465846170024
:10095000022824D0032800D1CFE000220023012860
:100960004DD15802D205400AFF071043384303B067
:100970003CBC90469946A246AB46F0BD002B5BD1ED
:1009800004239A46033B00259B46AAE7FF35002C2B
:1009900060D1524602231A4392460220B1E7FF2259
:1009A0000023DEE74B461B0C9C464B462604360CC8
:1009B000180461463300220C6446000C43434E4346
:1009C0005043544380191A0C1218964203D98021BF
:1009D00049028C4664441B041B0C1004C01883019C
:1009E0005E1EB341800E1843130C1B199B01034379
:1009F0001C00230179D5012362081C401443019A8D
:100A00007F32002A4DDD630704D00F232340042BDF
:100A100000D00434230103D53C4B019A1C408032A2
:100A2000FE2ABCDCA3015B0AD2B29AE70C239A46E9
:100A3000093BFF259B4654E7180002F03BF94A4664
:100A4000431F76259A4000236D4291462D1A9A46FF
:100A50009B4646E7524603231A439246032050E73B
:100A6000200002F027F9431F2D1A9C40763D0020FC
:100A700047E780230027DB03FF2272E7424666E751
:100A80004C463200584662E780234A46DB031A424E
:100A900022D01C4220D123435B025B0A4746FF223F
:100AA0005FE701239A1A1B2A21DC23000199D34016
:100AB0009E318C401A0023005C1EA34113435A0749
:100AC00004D00F221A40042A00D004335A0111D452
:100AD0009B015B0A002244E780234A46DB03134361
:100AE0005B025B0A3700FF223BE7019587E70022A4
:100AF000002336E70122002333E78023DB0323436F
:100B00005B025B0AFF222CE7F8B30008FFFFFFF748
:100B1000F8B54746CE464400C20F80B547024802AA
:100B2000400A8446664648007F0A240EF6002500E7
:100B30009046FB00000EC90FB146FF2800D185E0AA
:100B400001267140261A914257D0002E43DD00281D
:100B500000D07FE04946002900D1AAE0013E002EE6
:100B600000D0F7E05B1A5A0100D48BE09B019C098E
:100B7000200002F09FF805388440854200DDD3E074
:100B8000451B230020200135EB40451BAC40621E75
:100B900094412343072400251C40012241460A407A
:100BA000002C04D00F211940042900D0043359012E
:100BB00000D480E00135ECB2FF2D00D0A3E0FF248B
:100BC00000235B02E405580AD207204310430CBC03
:100BD00090469946F8BD002E74D1601CC0B2012821
:100BE00000DCA7E04A469C1A620100D5B6E0002C62
:100BF000BED1002200240023E3E7002E00DC85E0C4
:100C0000002846D0FF2C49D080224846D204104309
:100C1000814601221B2E09DC20204C46801B84408B
:100C20004A462000F240441EA04102439B185A014C
:100C300028D50135FF2D00D1A8E0012207249449D1
:100C40001A405B080B4013431C40A6E7002E00D05F
:100C500078E775E7FF2C54D080224946D20411432F
:100C6000894601221B2E09DC20214846891B884029
:100C70004A460100F240481E81410A439B1A5A012C
:100C800000D573E7012241460A40590700D089E7A1
:100C900011E04846002858D1FF2C0CD1DB08002B6E
:100CA00000D18CE78020C00303435B025B0AFF2472
:100CB00087E7FF2C25D0DB08FF2DF0D05B025B0A15
:100CC000ECB27EE7002C4DD0FF2818D08024E4043D
:100CD000724223431B2A00DDC4E01C002025D440BF
:100CE000AA1A93405A1E934123434A460500D31A39
:100CF000884638E7721CF8D0F243FF28EAD10A0090
:100D00004B46FF25D7E79B015B0A5AE7002E41D1EE
:100D1000651CE9B2012945DDFF2D00D14FE707240D
:100D20004B445B081C4038E707225A4B2D1A2340DE
:100D3000144032E7002C1DD1002B7AD14B46002BFA
:100D400000D191E00A000025B5E7013E002E19D13F
:100D50004B446CE7FF2C84D1FF25ACE74A4688461C
:100D6000D41A05E7002BC5D10A00FF28C8D005001A
:100D70004B46A0E7002B49D14B46002B77D00A0009
:100D8000FF2598E7FF2C00D043E787E70A00FF2400
:100D9000002316E7002C15D1002B57D1FF28E6D1F0
:100DA0004B467BE7002C20D1002B57D04946002929
:100DB00053D04B445A0168D50724364A1C400125BC
:100DC0001340EAE6FF28EBD08022D2047642134398
:100DD0001B2E53DC2025AD1B1A00AB40F2405C1EDD
:100DE000A34113434B44050021E7002BD8D04946CB
:100DF000002900D152E78021C9030F4200D14DE7FD
:100E00006046084200D049E74B4647E74846FF2581
:100E1000002800D14FE78022D203174204D0604659
:100E2000104201D14B46884601224146FF250A4027
:100E300041E7484600281FD01A1A500120D54A46DB
:100E40000724D31A1C4088460025A6E6741CC9D086
:100E5000F643FF28BCD14B4620E799464B46002578
:100E6000DB082BE7012340E700220023A9E68023CB
:100E70000022DB03FF24A4E600251CE70123B1E7E1
:100E8000002AF1D013000025FCE60025FAE6C04652
:100E9000FFFFFF7DFFFFFFFB41024200C30F490A36
:100EA000120E00207E2A0DD99D2A0CD88020000425
:100EB0000143952A0ADC9620821AD1404842002B31
:100EC00000D108007047034A9818FBE7963A914012
:100ED000F4E7C046FFFFFF7F70B5041E34D001F079
:100EE000E9FE9E22121A962A07DCD2B208282EDDCD
:100EF000083884406002400A21E0992A09DD030095
:100F000021001B3399404B1E994105231B1ADC40DD
:100F10000C43052801DD431F9C4023000D490B4075
:100F2000650709D00F252C40042C05D004335C0143
:100F300002D59F220B40121A9B01580AD2B24002DE
:100F4000D205400A104370BD00220020F7E760027E
:100F5000400AF4E7FFFFFFFBF0B54F464646D64692
:100F60000C000903C0B5490A470F5E0039431F034F
:100F7000DB0F9C4665007B0A570F1F436D0DE40F86
:100F8000760DA146C000B846D200AB1B64457BD0AD
:100F9000002B5FDD002E00D0A4E03E00164300D100
:100FA00012E15E1E002E00D09EE1871A4346B84231
:100FB00080410125C91A4042091A0B0200D431E1CF
:100FC00049024E0A002E00D16EE1300001F072FE9F
:100FD0000300083B1F2B00DD61E120223900D21AFB
:100FE0009E40D1409F400E439D4200DD51E15D1B7C
:100FF0006B1C1F2B00DD7CE12021C91A3D00300055
:101000008F408840DD40791E8F4131000722284300
:10101000D940002507433A40002A09D00F233B401E
:10102000042B05D03B1DBB42BF417F42C9191F00A5
:101030000B0200D426E26A1CC64B55056D0D9A4280
:1010400000D106E1C44AFF080A40530752023B435D
:10105000120B8EE0002B00D0B8E06B1C5B055B0D23
:10106000012B00DC30E1871A4346B842B641CB1A67
:1010700076429E1B330200D54CE13B003343A1D1A5
:1010800000220024002570E0002B00DCE5E0002EAB
:1010900000D183E0AF4EB54260D08026360437439E
:1010A000B846382B00DC3EE1434613431F007A1E4E
:1010B00097413F1887428041404209180B0200D4F3
:1010C000B0E0A44B01359D4200D1C3E0A24A7B08A9
:1010D0000A4001210F401F435108D30707221F4335
:1010E0003A4099E79B4EB54238D0802636043743C4
:1010F000B846382B00DDDCE01F2B00DC30E11E00A1
:101100004746203EF740BC46202B04D04026F31A29
:1011100046469E403243170063467A1E97411F435E
:10112000CCE0002B00D104E24346134300D159E147
:101130004B07C00818438023C9081B03194208D075
:101140004546ED081D4204D14346D00859070843DF
:101150002900420FC9007F4D1143C0004B07CA0848
:101160007C49C00803438D4268D012036D05120B01
:101170006D0D002112031800130B0A0D12051A43FE
:10118000764B2D0513402B435B00E4075B0823439C
:1011900019001CBC90469946A246F0BD3E0016437D
:1011A00012D05E1E002E00D000E1871887428041D9
:1011B00041444042091801250B0233D5022585E739
:1011C00064463300414610001D00C7E7002D00D0E3
:1011D000DAE00C000443F3D05C1C00D19FE15D4CCD
:1011E000A64200D12FE1DB43382B00DD66E11F2B47
:1011F00000DD83E120240500E41A0F00DD40D94022
:10120000A0404346A7405B1A441EA04198462F4386
:101210003843171ABA42924143465242991A6446D9
:101220003500CAE607223A40002A00D0F6E64B070E
:10123000CA084849FF083B438D4296D11900114323
:1012400000D19EE1802109030A431203120B414D94
:101250008FE71500002200238BE7002B00D0C7E0AA
:101260006B1C5F057F0D012F00DCF1E0394DAB42B7
:1012700000D1B9E085180A008542894142444942BB
:1012800051180722CF076D082F4349083A401D0027
:10129000C2E607223049ED1A31403A40BCE63E0032
:1012A0002838864000279FE6380001F003FD2030F3
:1012B0008EE6434613431F007A1E9741C71BB84270
:1012C00080414042091A78E60E003B000643134372
:1012D000002D61D1002E00D0F4E0002B00D11BE1E5
:1012E00064463900100039E71A4FBB427AD0330008
:1012F000FFE630001F3DE840202B03D04021CB1AF1
:101300009E4037437B1E9F41072207433A400021FE
:10131000002589E7171A4346BA42B641591A764260
:101320008E1B64464EE61F2B00DDADE020264746AF
:10133000F61AB740B9461700B246DF404E463E4364
:1013400037005646B240561EB24117434246DA4075
:101350008918AEE6FF070000FFFF7FFFFFFF0F8049
:1013600020264746F61AB740B9461700B246DF4076
:101370004E463E4337005646B240561EB2411743D2
:101380004246DA40891A99E77F4CA6425BD0802416
:1013900024045B42214327E7002E0CD1002B00D10F
:1013A000CBE0644639001000774DD7E6764FBB425C
:1013B00018D0330075E6002B14D04B07C008184333
:1013C0008023C9081B03194207D0FC081C4204D122
:1013D0007907D0080843E14621004C46420FC90076
:1013E0001143C000684DB9E61D0000220023C0E68D
:1013F000002D5BD10D00054300D1E2E65D1C00D15C
:10140000B0E0614DAE421FD0DB43382B71DC1F2BA7
:1014100000DD96E020250F00ED1AAF40B946070029
:10142000AA46DF404D463D432F005546A840D940CF
:10143000451EA84188440743BF1897429241514234
:10144000414435003AE6644635004146100085E6E1
:101450000B000343002D00D063E6002BF5D043467C
:10146000134300D17AE6871887428041072241441E
:10147000404209183A400B0200D4D5E6434B0135EF
:101480001940C9E5380069E61E004746203EF7408E
:10149000BC46202B04D04026F31A46469E403243D9
:1014A000170063467A1E97411F4302E6364DAE424F
:1014B000CAD080252D045B422943A6E70843411E7C
:1014C0008841A6E6002B00D148E6871A4346B84279
:1014D000B641CB1A76429E1B33024BD5171A4346B0
:1014E000BA429241591A5242891A072264463A4036
:1014F00092E501430F00791E8F419DE71C000F000C
:10150000203CE740202B03D04024E31A99400843B5
:10151000411E884138437CE60022002425E6171A44
:101520004346BA429241591A5242891A64463500DA
:1015300043E541461000144D10E6802200241203BA
:1015400080E61D000F00203DEF40BC46202B03D05D
:101550004025EB1A9940084307006346781E8741EF
:101560001F4369E7871897429B4141445B42C91872
:101570003500A3E53B003343CED0072231003A408B
:1015800052E600231A00F4E5FF070000FFFF7FFF8B
:10159000F0B55746DE464E464546E0B58346070061
:1015A0000E03480085B092461C00360B400DCD0F4F
:1015B000002800D19DE0954B984239D08023F60059
:1015C0001B041E43924A7B0F334399469446030003
:1015D0006344009300230026FF00029323031B0BA8
:1015E00098466300E40F52465B0D019400D1B3E0CE
:1015F00086498B4200D19EE04246D10080221204EF
:101600000A435146490F11438B46814952468C4645
:1016100000996344CB1A0021D20000932B00634051
:101620009A460F2E00D905E17A4BB6009B599F468A
:101630005B463343994600D0B8E0022308260027D2
:1016400000900293CAE7CB463A0002990195019BAC
:101650009A46022927D0032900D180E2012944D0EB
:101660006D49009B8C4663441C00002C38DD5307F9
:1016700000D013E2D2085B46DB0109D55946674B1F
:1016800019408B468021C9008C46009B63441C0096
:10169000634B9C4207DC5B4664055F075B021743B4
:1016A0001B0B620D02E000230027584A00211B0398
:1016B0001C0B0B0D1B05234314055A4A380013401D
:1016C0001C4353466400DB0764081C43210005B03B
:1016D0003CBC90469946A246AB46F0BD0122524220
:1016E00001231B1B382B00DCADE100220023002767
:1016F000DCE75B46334399465ED0002E00D18AE199
:10170000300001F0D7FA03000B3B1C2B00DD7BE11E
:101710001D22D31A5A460100DA4008398E401300C0
:101720005F46334399468F403F4B00261B1A009378
:101730000023029352E7414653460B433B499B46E5
:101740008C46009B634400935B46002B3BD10223F5
:1017500000221E43022161E7434613439B4637D0D4
:101760004346002B00D162E1404601F0A3FA03009A
:101770000B3B1C2B00DD53E102004146083A91402F
:1017800088461D21CB1A5146D9400B0041460B43D8
:101790009B46534693401A00009B25499C46604453
:1017A00003008C4663440093002137E70323B146CE
:1017B00000900C26029311E70023009301330426C6
:1017C000002702930AE70323C3461E43032125E7AC
:1017D00001331E430022012120E700239A46802383
:1017E00000271B03094A61E7802349461B0319426E
:1017F00000D1E2E05946194200D0DEE00B431B0362
:1018000017001B0BA246014A50E7C046FF07000025
:1018100001FCFFFF38B40008FF030000FFFFFFFEDC
:10182000FE070000FFFF0F800DFCFFFF01F8FFFF28
:10183000F3030000D94500D9CBE000D1C6E03C005D
:1018400048460027009B013B00935B46160E1B0297
:101850001E431302984633041B0C9946310C019128
:10186000FEF7EAFC4A4642430B04210C05001943EB
:101870008A4207D98919013D8E4203D88A4201D98B
:10188000851E8919881A0199FEF7D6FC09048C4631
:101890004A46210464464243090C030021438A421C
:1018A00004D98919013B8E4200D8F1E02D041D4373
:1018B000AB464346891A4246280C12041D0C5B466F
:1018C000140C22001B041B0C5A4303946B43444327
:1018D000029568431B19150CEB189C4203D9802410
:1018E0006402A44660441C0C15041B042D0C201833
:1018F0005D19814277D373D00C1AA24A7D1BAF4287
:10190000BF419446009B7F426344E01B1C0086421B
:1019100000D1DBE00199FEF78FFC4A4642430B04FD
:10192000290C070019438A4207D98919013F8E42C1
:1019300003D88A4201D9871E8919881A0199FEF7AE
:101940007BFC09044A46894629044D464243090C5A
:10195000030029438A4207D98919013B8E4203D8E3
:101960008A4201D9831E89193F04891A3A00039FCC
:101970001A43380013041B0C584381460298150C77
:101980006F43434345434846000C8446DB19634498
:101990009F4203D9802040028446654448461F0C7C
:1019A00000041B04000C7D191818A94200D284E021
:1019B00000D17FE001231A4357E680234A461B03E8
:1019C00013431B031B0BAA466F4A6FE6BA4200D9AA
:1019D00035E74B46DC0758087B081C43FF0734E714
:1019E0000024AF4289D247444745A4415B46644244
:1019F000A4196418013BA6421ED2A0426DD800D1A2
:101A0000B6E0241A9B4678E703005A46283B9A40E2
:101A10000027914688E6584601F04CF9203072E6DE
:101A200003005246283B9A4093460022B4E65046B3
:101A300001F040F920309AE6A642E2D1B845DCD95F
:101A4000341A9B4659E71F2B65DC504C0099A4467D
:101A50005C46614408008C4011008240D940501E11
:101A600082410C4314435A46DA401300620709D0FE
:101A70000F222240042A05D02200141D94428941DD
:101A800049425B181A0262D50122002300270DE6A5
:101A90008A4200D80AE7831E891907E70F231340FB
:101AA000042B00D1E6E5171D9742924153429B4417
:101AB000FA08E0E5002800D1D7E57118531EB142BD
:101AC00027D3A94215D358D01A0073E7002B00DCA6
:101AD00004E6012300229B44CDE502234744474509
:101AE00089415B429C46494289190C19E344241AF6
:101AF00003E743465F0047459B41B8465B429E195A
:101B0000023A8919A94200D054E7404500D051E774
:101B1000ABE51A00F6E71F215F4649420C1BE74080
:101B2000202B07D01A49009B8C46634418005B4663
:101B300083401A43501E82413A430727002317402F
:101B400009D00F21002311401400042995D122004F
:101B50005F075B021B0BD20817430022A6E5802318
:101B600059461B030B431B0317001B0B064A9DE53D
:101B7000BD42B2D89B460024BFE68045B9D31A00C7
:101B8000C3E7C046FF030000FF0700001E0400007B
:101B90003E040000F0B54F464646D6468446C0B5E2
:101BA0008046194E18030F034D00000B5C0082465F
:101BB0003F0B6D0DC90F9146640DDB0F0120B5423F
:101BC0000AD0B44203D0A54201D157450CD01CBC69
:101BD00090469946A246F0BD66463E43F7D1AC42D8
:101BE000F5D154461443F2D10120C845EFD19942B2
:101BF00007D0002DEBD163461F433800471EB84184
:101C0000E5E70020E3E7C046FF070000F0B54F46D8
:101C10004646D6464D00C0B50E03C90F8A462C492C
:101C20001F035C008046360B6D0D91463F0B640D23
:101C3000DB0F8D421ED08C4216D0002D1ED13043BA
:101C40008446002C01D13A4323D06246002A1AD0A0
:101C50009A4529D0514602200139084001381CBC60
:101C600090469946A246F0BD39001143E5D00220C6
:101C70004042F4E73043FAD1AC420FD0002C0FD1F0
:101C80003A43E7D00CE00122013B934318000130B6
:101C9000E5E763460020002BE1D0DBE73A43E6D1DD
:101CA0009A45D7D1A542D5DCA54205DBBE42D1D8A5
:101CB00008D00020BE42D2D25046012301389843BA
:101CC0000130CCE7C845C5D80020C845F4D3C6E7E5
:101CD000FF070000F0B54F464646D6464D00C0B55A
:101CE0000E03C90F8A462E491F035C008046360B3F
:101CF0006D0D91463F0B640DDB0F8D4218D08C4269
:101D000011D0002D18D130438446002C1ED13A4307
:101D10001CD163460020002B30D0514602200139EF
:101D2000084001382AE039001143EAD0022025E0BA
:101D30003043FBD1AC4226D0002C26D13A4324D1EB
:101D40005146022001390840013817E06246002A56
:101D50000FD09A45E1D1A54205DBBE42DDD819D0AE
:101D60000020BE420AD25046012301389843013078
:101D700004E00122013B9343180001301CBC904653
:101D80009946A246F0BD3A43D0D19A45C5D1A54265
:101D9000C3DCE0E7C845C0D80020C845E3D3EDE781
:101DA000FF070000F0B55746DE464E464546E0B513
:101DB000834606000F03480087B092461D003F0B84
:101DC000400DCC0F002800D16FE0DE4B984238D098
:101DD0008023FF001B041F43730F3B430193DA4B27
:101DE0000027994600239B46F60081442B03690097
:101DF0001B0B52469846490DED0F002900D185E096
:101E0000D04B994200D173E04346DA0080231B0493
:101E100013435246CC48520F844613435246002087
:101E20006144D20089442100694000918C4601211F
:101E300049448A460F2F00D990E0C449BF00CF59CA
:101E4000BF465B463B43019300D06AE1022308276B
:101E5000002681469B46C9E732005846019B6146F1
:101E60000091022800D175E0032800D1FEE101288D
:101E700000D02CE100230027002600253F032A0D77
:101E80003F0BB34812053A4302401B051343009A27
:101E90005B00D1075B080B433000190007B03CBC66
:101EA00090469946A246AB46F0BD5B463B43019344
:101EB00000D12FE1002F00D1A5E1380000F0FAFE9B
:101EC00003000B3B1C2B00DD96E11D22D31A5A4662
:101ED0000100DA405E4608398F4013008E403B43D4
:101EE00001939C4B00271B1A994600239B467DE7D4
:101EF000414653460B4393498C46E144002B00D0A6
:101F00001AE102220220174300228CE7134300D17A
:101F10000DE14346002B00D181E1404600F0CAFEAE
:101F200002000B3A1C2A00DD72E101004346083929
:101F30008B4098461D239A1A5346D3401A004346B5
:101F4000134352468A404946081A824989468144C9
:101F5000002068E77B4B002700268EE7140C120454
:101F6000120C1100370C3604350C794328008C46CE
:101F70002E0060436044834656432100300C804667
:101F80005846794340440291844506D988468021C9
:101F900049028C46E044414602913604010C360C5D
:101FA00000048B4681191E0C1B041B0C03911900A5
:101FB00079438C46280075436544A8465843050C70
:101FC00045447743A94203D9802149028C4667449E
:101FD000290C8C4639000004000C2D042D18614496
:101FE000AB4405915946049101990F043F0C080C2C
:101FF000390051434243904602008C46090C8B46FF
:1020000062437C4344445C44A04503D98021490297
:1020100088464244210C884661460904090C8C46D6
:1020200039005943434370437E430F0CF618240490
:10203000BE19644442448C46B34203D980235B02F8
:1020400098464044029B61469846049B37044344AB
:102050009B46AB45AD416B420D0405992D0C8C465A
:102060007F196744FD18A8465D462D19A542A44175
:1020700093466442A446C344DC448F42BF41984522
:102080009B4193459241A445A4415B427F421F433B
:10209000360C52426442BF192243BF1862463818B8
:1020A0004302D20D039913436A020A43501E824130
:1020B0006146ED0D2A434E023243D90100D4B3E00C
:1020C0000126500832400243DE0732435B08224CAF
:1020D0005444002C62DD510709D00F201040042821
:1020E00005D0101D9042924152429B180200D90126
:1020F00004D580241948E40003405444184884421D
:1021000000DD27E75E075B02D2081F0B630516435D
:102110005B0DB2E6002399460133042700269B4657
:1021200064E60323019781460C279B465EE6012265
:1021300001201743002276E6032303201F43434672
:1021400071E6C046FF07000001FCFFFF78B40008FD
:10215000FFFF0F800DFCFFFFFF030000FFFFFFFEEE
:10216000FE0700000023802700933F030026434B17
:1021700083E6019B3200A446584670E6AC466EE604
:10218000802701993F0339422DD03B422BD11F4379
:102190003F033F0B00951600384B6EE601252D1BC3
:1021A000382D00DD66E61F2D40DC35481C0050440C
:1021B000160082408440EE40501E82413443144356
:1021C000EB40620709D00F222240042A05D02200EA
:1021D000141D9442804140421B181A023ED501232F
:1021E0000027002649E68027019B3F031F433F034A
:1021F0003F0B0094214B40E603005A46283B9A408F
:10220000002601926DE6584600F054FD203057E656
:1022100003005246283B9A401300002293E65046A2
:1022200000F048FD20307BE6CA4650E71F201E0024
:102230004042041BE640202D03D0124C5444A340DE
:102240001A43501E8241324307260027164009D008
:102250000F200023104014000428B9D122005E078B
:102260005B021F0BD2081643002306E680273F03BC
:102270001F433F033F0B1600004BFEE5FF07000026
:102280001E0400003E040000F8B557464E46454681
:10229000DE460C000903E0B5490A460F5F003143F2
:1022A0001E03DB0F760A9B46530F3343C84E65006F
:1022B000C000E40FD2006D0DA24681467F0D9C4602
:1022C0009046B74200D1B9E05B46012673409B4679
:1022D000EE1BA34500D183E0002E63DD002F00D06C
:1022E000B1E06346134300D123E1731E002B00D0FD
:1022F000BAE1861A6346B04280410125C91A4042BC
:10230000091A0B0200D447E149024B0A984643469A
:10231000002B00D189E1404600F0CCFC0300083BD3
:102320001F2B00DD7CE120223000D21A4146D04034
:10233000994002009E400A439D4200DD6AE15D1B18
:102340006B1C1F2B00DD94E1202110003500C91A01
:102350008E40DA408840DD40711E8E411100072218
:102360002843002506433240002A09D00F2333407A
:10237000042B05D0331DB342B641764289191E00A5
:102380000B0200D43DE26A1C914B55056D0D9A423B
:1023900000D119E18F4AF6080A4057075202374325
:1023A000120B9BE0002E00D0C5E06E1C7605760D6A
:1023B000012E00DC48E16746861ACB1BB042BF41C4
:1023C0007F42B8461F004346FF1A3B00B8461B0237
:1023D00000D55FE137439AD100220024002579E03F
:1023E000002E00DCFAE0002F00D18DE0784B9D42FA
:1023F00067D0802367461B041F43BC46382E00DC91
:1024000052E1634613435A1E93411E18864280418F
:10241000404209180B0200D4BEE06D4B01359D42CD
:1024200000D1D2E06B4A73080A4001210E401E43DE
:102430005108D30707221E43324095E71E0016437A
:1024400000D045E740E7624B9D423AD08023674683
:102450001B041F43BC46382E00DDEBE01F2E00DCC2
:102460003AE133006746203BDF403B00202E05D099
:102470004027BF1B6646BE40324390464646721E0A
:1024800096413343DAE0002B00D114E26346134354
:1024900000D168E180234E07C008C9081B0306432A
:1024A000194208D06046C008184204D163460100B2
:1024B000D2085E071643F3009946C900720F444DD7
:1024C00011434B46DE08424B4F073743CA089D4233
:1024D00000D16EE012036D05120B6D0D0021120389
:1024E000130B0A0D12051A433B4B2D0513402B43CA
:1024F0005B00E4075B082343380019003CBC9046AE
:102500009946A246AB46F8BD6346134311D0731EED
:10251000002B00D007E1861886428041614440428A
:10252000091801250B0237D502257BE73E006146DD
:1025300091463500C5E75C46002D00D0E1E00B0078
:102540000343F3D0731C00D1ACE1214B9F4200D177
:102550003AE1F343382B00DD6FE11F2B00DD8CE106
:1025600020250E00ED1AAE40B0460600AA46DE4019
:10257000454635432E005546D940A8406346451E82
:10258000A8415B1A9C463043161AB24292416346F8
:102590005242991A3D00B4E607223240002A00D088
:1025A000E4E60B4BF6084F073743CA089D4200D0BC
:1025B00090E73B00134300D1A6E180231B031A439D
:1025C0001203120B024D89E715000022002785E750
:1025D000FF070000FFFF7FFFFFFF0F80002E00D0EE
:1025E000C7E06B1C5E05760D012E00DCF0E0C84DE7
:1025F000AB4200D1B9E085180A00854289416244A6
:10260000494251180722CE076D082E43490832402F
:102610001D00A9E6BF49ED1A114007223240A3E68A
:10262000320028388240002686E6300000F042FB67
:10263000203073E6634613435A1E9341C61AB042D4
:1026400080414042091A5CE60E0067460643174384
:10265000002D5ED1002E00D0F3E0002F00D11EE14E
:102660005C46614691462CE7A94FBE427BD01E00D6
:10267000F1E610001F3DE840202B03D04021CB1A8B
:102680009A401643731E9E410722064332400021A2
:10269000002583E7161A6346B2428041591A404228
:1026A0000B1A98465C4632E61F2E00DDABE0202771
:1026B000BB1B9A4663465746BB40994613004F469C
:1026C000F3401F433B005746BA40571EBA411343DD
:1026D0006246F240891898E62027BB1B9A4663465B
:1026E0005746BB40994613004F46F3401F433B00FB
:1026F0005746BA40571EBA4113436246F240891A00
:102700009CE7834B9F425FD080252D047342294371
:1027100020E7002E0CD1002F00D1D0E05C466146AE
:1027200091467B4DCDE67A4FBE421CD01E0065E639
:10273000002F18D0C0084E0706438020C9080003A8
:10274000014208D06346DC08044204D12100DA4685
:10275000D2085E071643F300994601245346C90088
:10276000720F11431C406A4DABE61D00002200278A
:10277000B4E6002D59D10B00034300D1D6E6731CFB
:1027800000D1B2E0624B9F421ED0F343382B6FDC86
:102790001F2B00DD97E020250E00ED1AAE40B0465D
:1027A0000600AA46DE40454635432E005546A84061
:1027B000D940451EA8418C440643B6189642924122
:1027C000514261443D0025E63D006146914678E670
:1027D0000B000343002D00D055E6002BF5D06346D7
:1027E000134300D16DE68618864280416144404221
:1027F000091800220B0200D4D0E6464B01351940DF
:10280000B2E5B1465DE633006746203BDF403B0062
:10281000202E05D04027BF1B6646BE40324390465F
:102820004646721E96413343EFE5394B9F42CBD06B
:1028300080252D0473422943A8E70843411E88419F
:10284000A2E6002F00D13CE66346861ACF1AB042BA
:102850009B415B42FB1A98461B024ED5161A6346F3
:10286000B2429241591A5242891A5C4600227BE5D3
:1028700001430E00711E8E419FE71D000E00203D9A
:10288000EE40B046202B04D04025EB1A9940084377
:10289000814648464346411E8841184374E600225B
:1028A000002417E6161A6346B2429241591A524260
:1028B000891A3D0025E561469146154D01E68022C5
:1028C0000024120379E61D000E00203DEE40B046C4
:1028D000202B04D04025EB1A9940084381464E46F0
:1028E0004346711E8E411E4367E7861896429B4100
:1028F00061445B42C9183D008CE547463743CED062
:1029000007224146324049E600273A00E6E5C04644
:10291000FF070000FFFF7FFF70B50C4E0D031C0387
:1029200049005B002D0B490D240B5B0DB14208D013
:10293000064900208B4203D114432000441EA041CD
:1029400070BD05430120002DFAD1F1E7FF0700001B
:1029500030B5144D0A034B00120B5B0DC90F002458
:10296000AB4211DD104CA34210DC802464032243EF
:102970000E4CE41A1F2C0CDD0D48C31ADA4013006C
:102980005C42002900D11C00200030BD094BCC184E
:10299000FAE7094DE040AC4663449A401300034314
:1029A000EEE7C046FE0300001D04000033040000F3
:1029B00013040000FFFFFF7FEDFBFFFF70B5002851
:1029C0002DD0C317C5185D40C40F280000F072F960
:1029D000154B1B1A5B055B0D0A2815DD0B3885406E
:1029E00000222D032D0B002110002D030A0D2D0BAD
:1029F00012052A430D4D1B052A4013435B00E407D3
:102A00005B082343190070BD020029001532914074
:102A10000A000B21081AC5402D032D0BE3E7002403
:102A2000002300250022DEE71E040000FFFF0F80C8
:102A300010B5041E25D000F03DF9144B1B1A5B05A0
:102A40005B0D0A2812DD0B38844000222403240B7E
:102A50000021100024030A0D240B120522430C4C04
:102A60001B05224013435B00590810BD02002100E2
:102A7000153291400A000B21081AC4402403240B8C
:102A8000E6E7002300240022E2E7C0461E0400001F
:102A9000FFFF0F804100090E4B1C70B5DBB24602F0
:102AA000750AC40F012B14DDE0239B006D07360B64
:102AB000CB1800210A0D280012051C4D32435B057E
:102AC0002A405B0813435B00E4075B0823431900BB
:102AD00070BD002914D1002D1ED0280000F0EAF8A6
:102AE0000A281CDC0B232A001B1ADA4003001533CA
:102AF0009D400F4B12031B1A5B05160B5B0DD8E7AD
:102B0000002D06D0320B802636036D071643094B85
:102B1000CFE7084B0026CCE700230026C9E70300D7
:102B20002A000B3B9A400025E3E7C046FFFF0F80D9
:102B300089030000FF070000F0B54C00640D0B0393
:102B4000621C5B0A460F5205C90F1E43C500520D99
:102B5000012A29DD374BE718FE2F1CDC002F3BDD57
:102B60008001431E98410722F3006D0F03432B435E
:102B70001A40002A04D00F221A40042A00D004333D
:102B80008022D2041A4024D00137FAB2FF2F02D09B
:102B90009B01580A01E0FF2200204002D205400AB2
:102BA000C90710430843F0BD3543002C04D1002D64
:102BB0000AD100220020F0E7002DECD08020C003D5
:102BC0003043FF22E9E7002400235B02580AE2B207
:102BD000E3E7DB083C00F8E73B001733F3DB802337
:102BE0001B0433431E26F61B1F2E14DD0222524205
:102BF000D71B1A00FA401700202E04D00E4A944624
:102C00006444A3401D432B005D1EAB4107223B43A0
:102C10001A400027ADE7094A2800A21895409340C2
:102C20006C1EA541F04007222B4303431A400027A6
:102C30009FE7C04680FCFFFFA2FCFFFF82FCFFFF76
:102C40008446081C6146FFE71FB500F0D3F8002852
:102C500001D40021C8421FBD10B500F055F8404214
:102C6000013010BD10B500F0C5F8002801DB0020D0
:102C700010BD012010BDC04610B500F0BBF8002803
:102C800001DD002010BD012010BDC04610B500F0D0
:102C900063F8002801DC002010BD012010BDC046F3
:102CA00010B500F059F8002801DA002010BD01200D
:102CB00010BDC0461C2101231B04984201D3000C07
:102CC00010391B0A984201D3000A08391B0998429F
:102CD00001D30009043902A2105C40187047C046B5
:102CE00004030202010101010000000000000000D5
:102CF00010B5002903D1FFF7DDFF203002E0081CEA
:102D0000FFF7D8FF10BDC04670B542004E024C0020
:102D100045026D0A120EC30F760A240EC90FFF2A50
:102D20000FD0FF2C11D00120A24200D070BDB542BF
:102D3000FCD18B420DD0002AF8D12800451EA841B5
:102D4000F4E70120002DF1D1EBE70120002EEDD1B9
:102D5000E9E70020EAE7C04670B54A004E024502A6
:102D600044006D0A240EC30F760A120EC90FFF2C01
:102D700015D0FF2A0ED0002C15D1002A01D1002E2B
:102D80001CD0002D14D08B4227D00220013B1840CC
:102D9000013870BD002EEED002204042F9E7002D30
:102DA000FAD1FF2A0ED0002A0ED1002EEDD00BE072
:102DB00001230139994308000130EAE70020002D82
:102DC000E7D0E2E7002EE7D18B42DED1944205DD69
:102DD0000221581E08400138DBE70024A24204DC2F
:102DE000B542D2D80020B542D3D2581E0123984311
:102DF0000130CEE730B5420044024D02C30F480017
:102E0000640A120E6D0A000EC90FFF2A12D0FF28A5
:102E10000CD0002A12D1002819D1002D17D1002C76
:102E20002BD00220013B1840013826E0002DF0D0C5
:102E3000022022E0002CFBD1FF281FD000281FD148
:102E4000002D1DD10220013B1840013815E0002C57
:102E50000ED08B42E5D10022904204DCAC42E0D897
:102E60000020AC4209D2581E01239843013004E0EF
:102E70000123013999430800013030BD002DD7D11D
:102E80008B42CED18242E7DD0221581E0840013834
:102E9000F3E7C04610B50400074B1868FA21890013
:102EA000FDF744F900F0A6FB01200022210040427A
:102EB00000F05CFB002010BD1C00002010B5064A8D
:102EC000136840210B4313600020FFF7E3FF05F078
:102ED0005BFB002010BDC04600200240024A136880
:102EE000013313607047C04608030020014B186887
:102EF0007047C0460803002010B582B00190FFF76C
:102F0000F5FF0400FFF7F2FF001B019B9842F9D385
:102F100002B010BD10B582B00400084B1868084913
:102F2000FDF704F94443019402E0019B013B019346
:102F3000019B002BF9D102B010BDC0461C0000203F
:102F400040420F0070B5040003689A68520721D50B
:102F50009A68520706D59A68920703D49A68102196
:102F60000A439A60FFF7C2FF050023689B685B076E
:102F70000ED5FFF7BBFF401B0A28F6D9A36D102220
:102F80001343A365E36D0F3A1343E365012002E0A9
:102F9000002000E0002070BD70B504000268916858
:102FA00003230B40012B01D0002070BD1368DB0709
:102FB0002DD5916805230B40012B09D0836D10227C
:102FC00013438365C36D0F3A1343C3650120ECE7D8
:102FD000936802210B439360036803221A60FFF792
:102FE00085FF050023689B68DB070ED5FFF77EFF92
:102FF000401B0A28F6D9A36D10221343A365E36D85
:103000000F3A1343E3650120CFE70020CDE700200E
:10301000CBE7000070B504000268916803230B4001
:10302000012B0DD09168184B19420ED0A36D1022C0
:103030001343A365E36D0F3A1343E365012070BDAD
:103040001368DB07EED50020F9E7936801210B43F5
:1030500093600120FFF75EFFFFF748FF050023683C
:103060001B68DB070ED4FFF741FF401B0A28F6D987
:10307000A36D10221343A365E36D0F3A1343E36579
:103080000120DCE70020DAE71700008070B5041E9D
:1030900000D1DCE0836D002B2ED0A36DDB0631D494
:1030A00021688B6804221A402CD1A36D6948034023
:1030B0000630FF300343A365886803230340012BD8
:1030C00029D06368C0200006834228D08020C00534
:1030D000834224D080200006834220D00B699B00CD
:1030E0009B080B615C4B19685C48014019601968CA
:1030F0006068014319601BE0C3655422835405F0E6
:1031000063FACAE7A36D10221343A3655423002278
:10311000E254012070BD0B68DB0713D4D1E70B69C3
:103120009B009B080B6121680B69606803430B617E
:103130002168CB6818208343CB602168CB68A068E6
:103140000343CB60444B1968454801401960196836
:10315000A06B40060143196023689968C90004D434
:10316000986880214905014399602168CB683D48F2
:103170000340CB602068C168E3682569022D2AD02E
:103180001343226A52031343226B52001343626BB0
:103190001343A26992031343E269D20313430B431F
:1031A000C360A36AC222FF32934205D02168CA6875
:1031B000E06A03431343CB60636A012B0DD0236C99
:1031C000012B1DD023681A69D2072CD51A69012159
:1031D0008A431A6127E00422D2E7236A002B06D132
:1031E0002268D16880235B020B43D360E7E7A36DBD
:1031F00020221343A365E36D1F3A1343E365DEE723
:103200002268136918490B40136121680A69636CCD
:10321000A06C0343E06C034313430B612268136902
:1032200001210B4313612268536907218B435361CA
:1032300022685369E16B0B4353610023E365A36D7F
:1032400003229343023A1343A365002062E701205F
:1032500060E7C046FDFEFFFF08270140FFFFC3FFF8
:10326000FFFFFFFD1902FEFF03FCFFFF10B5040086
:1032700003689B685B0723D45423C35C012B21D0D4
:1032800054230122C254C369012B14D10020A36D21
:103290000D4A1A4080235B001343A3650023E365B6
:1032A0005422A3542368383A1A6022689368042190
:1032B0000B43936010BDFFF7ADFE0028E7D0F9E7A0
:1032C0000220F7E70220F5E7FEF0FFFF10B504004B
:1032D0005423C35C012B17D054230122C254FFF79F
:1032E00031FE002803D054230022E25410BD2000F8
:1032F000FFF752FE0028F6D1A36D044A13400432B2
:10330000FF321343A365EEE70220EFE7FEFEFFFF67
:10331000F8B504000E004569082D04D00368DB6889
:10332000DB0719D40C25FFF7E1FD070023681A68B5
:1033300015421AD1731CF9D0002E04D0FFF7D6FD28
:10334000C01BB042F2D9A36D04221343A3655423DA
:103350000022E254032007E0836D2022134383659B
:1033600054230022C2540120F8BDA16D8022920096
:103370000A43A265D968C0221201114213D1226A00
:10338000002A10D11A6812070DD59A68520712D474
:103390005A680C218A435A60A36D0C4A13400432C8
:1033A000FF321343A365A369002B0DD123680C22C0
:1033B0001A600020D8E7A36D20221343A365E36DB4
:1033C0001F3A1343E365EEE70020CDE7FEFEFFFF63
:1033D0000368186C7047000070B504000D0054239A
:1033E000C35C012B5CD054230122C25403689A6849
:1033F000520723D42B4A4968914232D0996A2A68ED
:103400005203520B0A439A622B685B031FD42B684A
:103410009B0305D5244A11688023DB030B4313600B
:103420002B68DB0305D5204A116880235B040B431E
:10343000136054230022E254002070BD836D2022CB
:103440001343836554230022C2540120F5E7164A32
:10345000116880231B040B4313600A20FFF75AFDF9
:10346000D5E7996A2A685203520B914399622B68F7
:103470005B0304D50C4A13680C490B4013602B689E
:103480009B0304D5084A136809490B4013602B6855
:10349000DB03CED5044A136806490B401360C8E726
:1034A0000220CAE70110000008270140FFFF7FFF4C
:1034B000FFFFBFFFFFFFFFFE70B504005423C35C96
:1034C000012B49D054230122C25403689968023267
:1034D0000A40012A08D11A68D20705D5836D202237
:1034E00013438365012033E0A26D1C490A40063175
:1034F000FF310A43A265DE6801310E40DA688A4373
:10350000DA602268916880231B060B439360FFF703
:10351000EDFC050023689A68002A0FDAFFF7E6FC45
:10352000401B0A28F6D9A36D12229343023A134393
:10353000A36554230022E25401200CE0DA6816430C
:10354000DE60A36D03229343023A1343A365002078
:1035500054230022E25470BD0220FCE7FDFEFFFF71
:103560000268B423D3587F201840704770B50028F4
:1035700011DB8408134DC034A400625903231840A2
:10358000C000FC331E008640B24389010B408340DB
:103590001343635170BDC0B20F220240083A920833
:1035A00006329200084BD3185D6803242040C00007
:1035B000FF2214008440A54389010A4082402A4327
:1035C0005A60E7E700E100E000ED00E01F2318404B
:1035D0001E3B8340014A13607047C04600E100E093
:1035E0001F2318401E3B8340014980228B507047A7
:1035F00000E100E001380A4B98420FD8094A5060B8
:103600000948036A1B021B0AC02109060B43036217
:103610000023936007331360002070470120FCE70C
:10362000FFFFFF0010E000E000ED00E0042805D0FF
:10363000054A136804218B4313607047024A1368DC
:1036400004210B431360F8E710E000E0704710B569
:10365000FFF7FCFF10BD10B5041E0ED00379002B40
:1036600007D002232371002323610133237100203B
:1036700010BD437104F0C6FFF3E70120F8E770477F
:1036800070B54379012B1AD00125457102230371CE
:10369000066833680B4C9440A3431C000B684968D0
:1036A0000B4393402343336004682368C021914057
:1036B0008B432360057100234371002070BD0220FD
:1036C000FCE7C046FE0F0000704710B54379012BA0
:1036D0002DD00123437102220271046822688B40BD
:1036E00013432360002913D102681168146838233A
:1036F0002340490701D5382B05D00123037100234E
:103700004371002010BD536801210B435360F4E75F
:10371000026811681368E024A40323404903ECD530
:10372000A342EAD1536802210B435360E5E702202C
:10373000E8E7000010B5040003685A6B920404D453
:1037400023685A6B920011D410BD042202710269E1
:1037500001210A430261802292015A6302681368C0
:103760000B490B401360FFF78AFFE9E7042222713F
:10377000226902210A432261802292055A6322684B
:10378000136804490B4013602000FFF79DFFDBE73F
:10379000FFEFFFFFFFFFFFEF10B582B000240194A1
:1037A00000680190002908D001998A18143201920A
:1037B000019A1360002002B010BD01998A180832E6
:1037C0000192F5E710B5046863608368102B04D09C
:1037D000036899600368DA6010BD03689A60036843
:1037E000D960F9E710B5002800D182E02523C35C39
:1037F000002B02D124330022C25425230222C254BA
:1038000001680B683C4A1A408368C4682343046912
:1038100023434469234384692343C4692343046ADB
:10382000234313430B600368344A93421CD0344A49
:10383000934227D0334A93422FD0334A934237D012
:10384000324A93423FD0324A934247D0314A934260
:1038500013D1314B1A6831490A401A601A6841681D
:1038600009060A431A6008E02B4B1A680F218A43A5
:103870001A601A6841680A431A6025230122C2545B
:10388000002010BD244B1A68F0218A431A601A6880
:10389000416809010A431A60EFE71F4B1A68204983
:1038A0000A401A601A68416809020A431A60E4E78C
:1038B000194B1A681B490A401A601A6841680903C3
:1038C0000A431A60D9E7144B1A6817490A401A606C
:1038D0001A68416809040A431A60CEE70E4B1A6859
:1038E00012490A401A601A68416809050A431A60B9
:1038F000C3E70120C5E7C0460FC0FFFF0800024034
:103900001C000240300002404400024058000240C7
:103910006C00024080000240A8000240FFFFFFF060
:10392000FFF0FFFFFF0FFFFFFFFFF0FFFFFF0FFFA5
:1039300000B5002800D1F5E02523C35C022B00D19F
:10394000F2E00268136801218B43136002680023D0
:10395000136002685360026893600268D360036872
:10396000724A934214D0724A93422AD0714A9342C7
:1039700029D0714A934229D0704A934229D0704A83
:10398000934202D08022520403E08022520300E0DE
:1039900001226C4B5A600368644A93421FD0644A08
:1039A000934235D0634A934234D0634A934234D031
:1039B000624A934234D0624A93420DD080229204EC
:1039C0000EE01022E5E780225200E2E78022520159
:1039D000DFE780225202DCE78022920300E002222D
:1039E000584B5A600368514A93421FD0504A934241
:1039F00035D0504A934234D04F4A934234D04F4A44
:103A0000934234D04E4A93420DD0802212050EE0EC
:103A10002022E5E780229200E2E780229201DFE7A0
:103A200080229202DCE78022120400E00822454B4B
:103A30005A6003683D4A93421FD03D4A93423BD0AF
:103A40003C4A93423AD03C4A93423AD03B4A934252
:103A50003AD03B4A93420DD08022D2040EE080221D
:103A6000E5E780221201E2E780221202DFE78022EE
:103A70001203DCE78022D20300E00422314B5A60BB
:103A800003682A4A934222D0294A93422CD0294AD9
:103A900093422FD0284A934232D0284A934235D0BD
:103AA000274A934238D0284A934215D1274A1368AF
:103AB00027490B4013600FE04022DFE78022D2004D
:103AC000DCE78022D201D9E78022D202D6E71F4A62
:103AD00013680F218B4313600023C3632522835493
:103AE000013A8354002000BD184A1368F0218B432B
:103AF0001360F1E7154A136816490B401360EBE7B2
:103B0000124A136814490B401360E5E70F4A136823
:103B100012490B401360DFE70C4A136810490B4051
:103B20001360D9E70120DEE70120DCE7080002404E
:103B30001C00024030000240440002405800024095
:103B40006C0002400000024080000240A8000240D9
:103B5000FFFFFFF0FFF0FFFFFF0FFFFFFFFFF0FF92
:103B6000FFFF0FFFF8B504002420205C012820D0BF
:103B70000125242025540226013026542768386860
:103B8000A84338602000FFF71DFE22681368334306
:103B900013602268136804210B43136022681368C2
:103BA00004310B431360226813682B431360002019
:103BB000F8BD0220FCE7000010B52523C35C022BF2
:103BC00003D00423C363012010BD026813680E21D3
:103BD0008B431360026813680D398B4313600368CD
:103BE000194A934214D0194A934220D0184A93425A
:103BF0001FD0184A93421FD0174A93421FD0174A2A
:103C0000934202D08022520403E08022520300E05B
:103C10000122134B5A6025230122C254013B00228A
:103C2000C254836B002B0DD098470020CCE71022A4
:103C3000EFE780225200ECE780225201E9E7802280
:103C40005202E6E70020BFE7080002401C000240E5
:103C50003000024044000240580002406C00024024
:103C60000000024010B50400974B1A68036897499A
:103C70008B4214D096498B4231D096498B4230D03A
:103C800095498B4230D095498B4230D094498B4234
:103C900002D08021090503E08021090400E0082109
:103CA00011423CD01A68120739D51A6808218A4394
:103CB0001A602368854A93421FD0854A934246D0B2
:103CC000844A934245D0844A934245D0834A9342E2
:103CD00045D0834A93420DD0802212050EE0802108
:103CE000DEE780210901DBE780210902D8E7802196
:103CF0000903D5E78022120400E00822724B5A60C3
:103D0000E36B01221343E36325230332E254013BB7
:103D10000022E254636B002B01D0200098476A4BCD
:103D20001A68236869498B421FD069498B423FD08A
:103D300068498B423ED068498B423ED067498B42EE
:103D40003ED067498B420DD08021C9040EE080220D
:103D5000D4E780221201D1E780221202CEE780222E
:103D60001203CBE78021C90300E00421114238D0BF
:103D70001A68520735D51A68920603D41A680421C6
:103D80008A431A602368514A93421FD0504A934293
:103D90003FD0504A93423ED04F4A93423ED04F4A82
:103DA00093423ED04E4A93420DD08022D2040EE080
:103DB0004021DBE78021C900D8E78021C901D5E790
:103DC0008021C902D2E78022D20300E004223E4BC8
:103DD0005A6025230522E254236B002B01D02000DA
:103DE0009847394B1A68236838498B421FD03849A5
:103DF0008B423FD037498B423ED037498B423ED031
:103E000036498B423ED036498B420DD08021890401
:103E10000EE04022DBE78022D200D8E78022D201E8
:103E2000D5E78022D202D2E78021890300E0022177
:103E300011423DD01A6892073AD51A68920603D407
:103E40001A6802218A431A602368204A93421FD0CD
:103E50001F4A93422DD01F4A93422CD01E4A9342B0
:103E60002CD01E4A93422CD01D4A93420DD0802262
:103E700092040EE02021DBE780218900D8E7802131
:103E80008901D5E780218902D2E78022920300E0F0
:103E900002220D4B5A60E36BE36325230122E254B7
:103EA000013B0022E254E36A002B01D02000984736
:103EB00010BD2022EDE780229200EAE780229201E5
:103EC000E7E780229202E4E7000002400800024097
:103ED0001C000240300002404400024058000240F2
:103EE0006C000240F0B5C64600B5002338E0052658
:103EF00000E00026AE4035003D430234A400584E99
:103F0000A551584C25684246D4432E0026404A68A5
:103F1000D20302D5424615432E00524D2E606D68E5
:103F20002E0026404A68920302D5424615432E00D1
:103F30004C4D6E60AD682E0026404A68D20202D514
:103F4000424615432E00474DAE60ED682C404A684E
:103F5000920202D542462A431400424AD4600133F9
:103F60000A681400DC4077D001249C40224090462F
:103F7000F5D04D68022D01D0122D0ED1DD08083587
:103F8000AD002F5807261E40B6000F22B2409743BF
:103F90000A69B24016003E432E504D686E1E012E37
:103FA00003D9112D01D0122D12D185685F0003268F
:103FB000BE40B5432E00CD68BD40354385604568A1
:103FC000A5434A681609012434409C402C434460B0
:103FD00007685E0003242500B540ED432F404A6882
:103FE0001440B4403C430460C46825408C68B4402D
:103FF0002C43C4604A68D200B1D51B4D6C6B0126BE
:1040000034436C639C08A51CAD00154EAF590326C4
:104010001E40B5000F26AE40B743A026F605B042BD
:1040200000D166E7114EB0420ED0114EB0420DD015
:10403000104EB0420CD0104EB0420BD00F4EB042DA
:1040400000D154E7062655E7012653E7022651E73B
:1040500003264FE704264DE704BC9046F0BDC0465A
:104060000000014000040140001002400004005024
:1040700000080050000C005000100050001C0050C0
:10408000F0B5D6464F464646C0B5002306E00525A6
:1040900000E000259540A54254D001330A00DA40E3
:1040A00066D001229A400C001440A446F5D0066860
:1040B0005D000324A2462700AF403D003E4306605A
:1040C000DF080837BF003C58A14607261E40B6004F
:1040D0000F24A046B44026004C46B4433C508668AA
:1040E000ED432E408660466896434660C2681540A0
:1040F000C5609E08B51CAD00204AAD5852461A4016
:104100009200474697402C003C40A025ED05A84270
:10411000BFD01B4DA8420DD01A4DA8420CD01A4D4D
:10412000A8420BD0194DA8420AD0194DA842AED0D2
:104130000625AFE70125ADE70225ABE70325A9E793
:104140000425A7E70D4DB21C92005459BC435451AD
:10415000104C25686246D2431540256065681540BD
:104160006560A5681540A560E5682A40E26094E7AF
:104170001CBC90469946A246F0BDC04600000140D6
:104180000004005000080050000C005000100050C7
:10419000001C00500004014003690B4201D10020C3
:1041A00070470120FCE7002A01D1816270478161DC
:1041B000FCE74369594041617047000010B5054B69
:1041C0005B69184200D110BD024B586103F08EF9B3
:1041D000F9E7C0460004014010B5041E59D0412340
:1041E000C35C002B43D041232422E254226813688D
:1041F00001218B4313602268274B61680B401361D8
:104200002268936825490B409360E368012B34D002
:10421000226884231B02A1680B439360E368022B8E
:1042200032D0226851681E4B0B4353602268D3681A
:104230001A490B40D360236962691343A2691202D1
:1042400021681343CB602268E369216A0B43136042
:104250002268136801210B43136000236364412229
:104260001F31A15423630132A354002010BD4033F9
:104270000022C25404F0ECF9B5E7226880231B0247
:10428000A1680B439360C9E72368802212015A603A
:10429000C7E70120EAE7C046FFFFFFF0FF7FFFFF0F
:1042A00000800002F0B54123C35C202B20D12033D5
:1042B000C35C012B1ED0402401220255412524233A
:1042C00043550668336893433360066833680A4F82
:1042D0003B403360066833681943316001680B68FE
:1042E00013430B602023435500230355002000E0B7
:1042F0000220F0BD0220FCE7FFEFFFFFF0B54123F5
:10430000C35C202B1ED12033C35C012B1CD0402466
:1043100001220255412524234355066833689343FF
:10432000336006683368094F3B4009021943316026
:1043300001680B6813430B6020234355002303558A
:10434000002000E00220F0BD0220FCE7FFF0FFFFAC
:1043500030B51B4BDB68F022134022D1184A926B18
:10436000D2000ED5174A1268C02149010A40C02167
:1043700049018A4216D1C0221202904212D1012371
:1043800010E00F498C6B8022520522438A630D4A4C
:104390001268C024640122408C6B0B4D2C408C634E
:1043A000E5E700230948026801218A431A430260B5
:1043B00002681140994201D0012030BD0020FCE785
:1043C0000010024000700040FFFFFFEF002002409D
:1043D00070B582B004000368DB0740D5CC4BDA68C7
:1043E0000C231340082B32D0C94BDA680C2313403E
:1043F0000C2B28D0636880225202934257D0A0220F
:10440000D20293425AD0C24B1A68C2490A401A607B
:104410001A68802149020A400192019A1A68BE492D
:104420000A401A606368002B54D0FEF75FFD050058
:10443000B74B1B689B0312D4FEF758FD401B642842
:10444000F6D903206BE2B24BDB68DB03D2D5B04B6D
:104450001B689B0303D56368002B00D158E22368D7
:104460009B075AD5AA4BDA680C231340042B43D080
:10447000A74BDA680C2313400C2B39D0E368002BD0
:1044800000D1ADE0A2490A680920824313430B60C2
:10449000FEF72CFD05009E4B1B685B0700D596E0E0
:1044A000FEF724FD401B0228F5D9032037E2984A85
:1044B000116880235B020B431360B3E7944B1968C8
:1044C0008022D2020A431A601968802252020A43EB
:1044D0001A60A7E7FEF70AFD05008D4B1B689B03DA
:1044E000BDD5FEF703FD401B6428F6D9032016E274
:1044F000874BDB68DB03C1D4854B1B685B0704D5A6
:10450000E368012B01D0012009E281494B68834A0D
:1045100013402269120213434B602368DB063BD52C
:104520007B4BDB680C221A4200D080E0784B1B6882
:104530009B0503D5E369002B00D1EBE1606A744B66
:104540005B68E0221202134098425CD9FFF700FF3B
:10455000002800D0E0E16E4A536871490B40616A5F
:104560000B43536053681B021B0A216A09060B4365
:104570005360636A5A0B013280231B029340644AE2
:10458000D16809090F220A4066498A5CD340664A0D
:1045900013600020FEF77EFC23681B0700D492E026
:1045A0006369002B7CD05A4A136D01210B431365BC
:1045B000FEF79CFC0500564B1B6D9B0700D582E067
:1045C000FEF794FC401B0228F5D90320A7E15049CF
:1045D0004B68524A13402269120213434B609CE716
:1045E0004B4A136801218B431360FEF77FFC0500E3
:1045F000474B1B685B0790D5FEF778FC401B0228F1
:10460000F6D903208BE1424A536845490B401843D1
:10461000506053681B021B0A216A09060B43536052
:10462000606AFFF795FE0028A3D0012077E1E369D7
:10463000002B22D0364A116880235B000B431360A5
:10464000FEF754FC0500324B1B689B0506D4FEF7B1
:104650004DFC401B0228F6D9032060E12C4A536828
:104660002F490B40616A0B43536053681B021B0ABE
:10467000216A09060B4353608EE7254A13682B49CC
:104680000B401360FEF732FC0500214B1B689B05B5
:1046900082D5FEF72BFC401B0228F6D903203EE111
:1046A0001B4A136D01218B431365FEF71FFC0500A8
:1046B000174B1B6D9B0706D5FEF718FC401B022805
:1046C000F6D903202BE123685B0700D48DE0104B63
:1046D0009B6BDB0030D40E4A916B80235B050B4350
:1046E00093630125124B1B68DB0527D5A368802245
:1046F0005200934236D0002B4CD1054B1A6D0B491A
:104700000A401A651A6D0B490A401A6530E0C04626
:1047100000100240FFFFFEFFFFFFFBFFFFE0FFFF77
:10472000FF1FFFFF60B300081C000020FFFEFFFF1B
:1047300000700040FFFBFFFF0025D3E77A4A1168B5
:1047400080235B000B431360FEF7D0FB0600764B23
:104750001B68DB05CAD4FEF7C9FB801B6428F6D9A9
:104760000320DCE0714A116D80235B000B4313656D
:10477000A368002B28D0FEF7B9FB06006B4B1B6D1E
:104780009B0530D4FEF7B2FB801B694B9842F5D9EC
:104790000320C4E0A022D200934209D0634B1A6DDB
:1047A00064490A401A651A6D63490A401A65DFE7D1
:1047B0005E4B196D013AFF3A0A431A65196D802262
:1047C00052000A431A65D3E7FEF790FB0600574BE9
:1047D0001B6D9B0507D5FEF789FB801B544B984248
:1047E000F5D903209BE0012D21D023689B063CD501
:1047F000A369002B21D04D4B99680120014399609A
:104800005A6B02435A634D4A116A80239B010B4342
:104810001362FEF76BFB0500444B9B689B0724D497
:10482000FEF764FB401B0228F6D9032077E03F4ADD
:10483000936B43490B409363D7E73C4A936801214C
:104840008B4393603D4A136A3E490B401362FEF767
:104850004DFB0500354B9B689B0706D5FEF746FBD5
:10486000401B0228F6D9032059E0A36A002B55D03B
:104870002E4AD1680C220A400C2A52D0022B12D0A8
:104880002A4A136830490B401360FEF72FFB0400DF
:10489000264B1B689B0139D5FEF728FB001B02281D
:1048A000F6D903203BE0214A136827490B401360E7
:1048B000FEF71CFB05001D4B1B689B0106D5FEF790
:1048C00015FB401B0228F6D9032028E01749CB68C6
:1048D0001E4A1340E26A206B0243606B024313439B
:1048E000CB600A6880235B0413430B60FEF7FEFA7B
:1048F00004000E4B1B689B0106D4FEF7F7FA001B61
:104900000228F6D903200AE0002008E0002006E093
:10491000012004E0012002E0012000E0002002B0BC
:1049200070BD0120FBE7C04600700040001002404F
:1049300088130000FFFEFFFFFFFBFFFF00000140A8
:10494000FFFFFFEFFFDFFFFFFFFFFFFEFFFF02FFA5
:1049500010B5264BD9680C230B40082B42D00C2BEA
:1049600011D0042B09D0214B5A68520B0723134056
:10497000013380200002984010BD1C4B1B68DB06F1
:1049800032D51B48F8E78A0C0F231340194AD05C34
:10499000890D032211400131144BDB68DB030DD478
:1049A000124B1B68DB0613D54201121A93019B1AA6
:1049B000DB001B181802FBF7B9FBDDE74201121AF6
:1049C00093019B1ADB001B185802FBF7AFFBD3E7E0
:1049D0004201121A93019B1ADB001B189802FBF785
:1049E000A5FBC9E70448C7E70448C5E70010024033
:1049F00000093D0054B3000800127A000024F400BE
:104A000070B504000D005F4B1A68012313408B4200
:104A10000BD25C490B68012293432B430B600B685C
:104A20001A40AA4201D0012070BD23689B0706D519
:104A3000554AD368F0218B43A1680B43D3602368A8
:104A4000DB0764D56368022B09D0032B29D0012B27
:104A50002DD04D4A1268920506D40120E4E74A4A57
:104A60001268920300D48AE04749CA68032082434F
:104A70001343CB60FEF73AFA06006368022B1CD0A2
:104A8000032B28D0012B34D03F4BDB680C221A4279
:104A90003DD0FEF72BFA801B3C4B9842F4D9032003
:104AA000C2E7394A12689201DED40120BCE7364AD7
:104AB00012685207D8D40120B6E7334BDA680C23CA
:104AC0001340082B23D0FEF711FA801B2F4B98427E
:104AD000F3D90320A8E72C4BDA680C2313400C2BE6
:104AE00015D0FEF703FA801B284B9842F3D9032018
:104AF0009AE7254BDA680C231340042B07D0FEF706
:104B0000F5F9801B214B9842F3D903208CE71D4B0C
:104B10001A6801231340AB420BD91A490B680122D2
:104B200093432B430B600B681A40AA4201D001202B
:104B30007AE723685B0706D5134AD36814490B400C
:104B4000E1680B43D36023681B0707D50E49CB6888
:104B5000104A13402269D2001343CB60FFF7F8FEDE
:104B6000094BDA6812090F2313400B4AD35CD84073
:104B70000A4B18600020FEF78DF9002054E7012051
:104B800052E7C04600200240001002408813000097
:104B9000FFF8FFFFFFC7FFFF60B300081C00002005
:104BA000014B18687047C0461C00002010B5FFF785
:104BB000F7FF044BDA68120A07231340024AD35C5A
:104BC000D84010BD0010024070B3000810B5FFF7C8
:104BD000E7FF044BDA68D20A07231340024AD35C8A
:104BE000D84010BD0010024070B3000870B504003A
:104BF00082231B0102681A425AD0754B9B6BDB0063
:104C000000D59DE0724A916B80235B050B43936353
:104C10000125704B1B68DB0500D493E06C4B1A68D0
:104C2000C0239B031A4061680B40934200D19EE071
:104C3000C0239B020A001A409A4200D19FE0644BB5
:104C40001B6DC022920213401FD01140994202D026
:104C50002268920608D4C0229202A1680A409A42B1
:104C600013D023681B0510D5594B186D5A4A0240C2
:104C70001E6D8021090331431965196D574E31406E
:104C800019651A65C30500D580E06368C0229202E9
:104C900019001140914200D188E04D490B6DC022AE
:104CA00092026068024013430B65012D00D187E03A
:104CB0002368DB0706D5464AD36C03218B43E168A2
:104CC0000B43D36423689B0706D5414AD36C0C2160
:104CD0008B4321690B43D36423685B0706D53C4AA9
:104CE000D36C3F490B4061690B43D36423681B07B6
:104CF00006D5374AD36C3B490B40A1690B43D364BB
:104D00002368DB0506D5324AD36C33490B40E16991
:104D10000B43D36423685B0606D52D4AD36C324916
:104D20000B40616A0B43D36423681B064ED5284AA7
:104D3000D36C2E490B40216A0B43D364002070BD15
:104D4000002566E7234A116880235B000B4313604C
:104D5000FEF7CCF806001F4B1B68DB0500D55DE7AE
:104D6000FEF7C4F8801B6428F5D90320E7E7C023C9
:104D70009B03A0680340934200D059E75FE7144BC0
:104D80001B689B0300D45AE70120D8E7FEF7AEF872
:104D900006000F4B1B6D9B0500D576E7FEF7A6F8C6
:104DA000801B134B9842F4D90320C8E708490A68CE
:104DB00010480240C0208003034013430B606CE79F
:104DC0000A008B6B0C490B40936371E70020B6E738
:104DD0000010024000700040FFFFFCFFFFFFF7FFE4
:104DE000FFF3FFFFFFCFFFFFFFFFFFFBFFFFF3FF1F
:104DF00088130000FFFFCFFFFFFFFFEF10B5102863
:104E000000D120E12ED8022800D1CAE017D9042809
:104E100000D1E5E0082859D19E4BDB6CC0229201FD
:104E2000134000D102E180229201934200D100E1BF
:104E300080225201934200D102E1002047E0012884
:104E400044D1944BDA6C0323134000D196E0022B3B
:104E500000D196E0012B00D19AE0032B00D19AE01B
:104E6000002034E0402859D016D980235B009842B6
:104E700028D1884BDB6CC0229202134000D1EBE0BA
:104E800080229202934200D1E9E0802252029342B2
:104E900000D1EBE000201AE0202817D17D4B196DDE
:104EA0001B6DC022920213408022520293420FD007
:104EB00080229202934210D0C0229202934210D0DC
:104EC000002004E080231B019842E7D0002010BDA1
:104ED0008A05EDD580200002F9E78A07ECD56E48F7
:104EE000F5E76C4B1B689B0300D4C2E0694B1B6861
:104EF000C0229203134080229203934200D1BAE071
:104F0000C0229203934205D080225203934203D0E1
:104F10006248DCE76248DAE76248D8E75D4BDB6C61
:104F20008022D20413401FD15A4A126892011BD525
:104F3000584BD868D968800C0F2202405A48805CD0
:104F40008A0D032111400131DB68DB0307D4514B8B
:104F50001B68DB0601D4554B02E0504B00E0544B7C
:104F60005843FBF7E3F8B2E7002B00D185E0494B4B
:104F70009B689B0700D582E00020A8E7FFF726FE8C
:104F8000A5E7444A1268520700D463E747489EE702
:104F9000FFF7DEFC9BE73F4B1B6D9B0571D40020A8
:104FA00095E73C4BDA6C0C23134007D0082B08D054
:104FB000042B0CD00C2B0DD0002088E7FFF7F6FD5A
:104FC00085E7344A12685207F2D538487FE7FFF781
:104FD000BFFC7CE72F4B1B6D9B0555D4002076E76B
:104FE0002C4BDB6CC022120113400DD08022120129
:104FF00093420CD08022D20093420ED0C0221201E4
:1050000093420DD0002062E7FFF7D0FD5FE7214A11
:1050100012685207EED5254859E7FFF799FC56E785
:105020001C4B1B6D9B0532D4002050E7FFF7BEFDE3
:105030004DE7184A1268520700D4F9E61B4846E7C4
:10504000FFF786FC43E7134B9B6B5B0201D4002008
:105050003DE7FFF7ABFD3AE7FFF7A8FD37E70D4A5D
:105060001268520700D410E7104830E7FFF770FCD1
:105070002DE700202BE70F4829E7002027E70E48FF
:1050800025E78020000222E7802000021FE7802021
:1050900000021CE7001002408890000000093D005B
:1050A00020A1070080841E0054B300080024F400EF
:1050B00000127A0040420F00006CDC0210B50400C0
:1050C00003689A68D20402D5DB68DB050ED4236836
:1050D0009A68920402D5DB689B0511D40E4B80229E
:1050E00092025A6121230122E25410BD02F010FA0B
:1050F0002168CA68FF231A40084B1343CB60E6E7D8
:10510000200000F0EBFA2168CA68FF231A40044B24
:105110001343CB60E2E7C046000401407FFEFFFF7F
:105120007FFDFFFF70B504000268D368A0218B43A8
:10513000D360FDF7DBFE05002368DB689B0608D41F
:10514000FDF7D4FE401BFA239B009842F4D90320BC
:1051500000E0002070BD70B504000368DA685206F4
:1051600001D5002070BD01225242DA60FDF7BEFE7B
:1051700005002368DB685B0608D4FDF7B7FE401B1B
:10518000FA239B009842F4D90320EBE70020E9E7DB
:1051900070B5041E4ED02123C35C002B3CD02123CC
:1051A0000222E2542368C8325A622368773A5A626C
:1051B0002000FFF7D0FF002834D1226893681E49F1
:1051C0000B40936021688A68636825692B43A56951
:1051D0002B4313438B602368E2681A6121680B69D3
:1051E000A268120413430B612268D36880218B43A9
:1051F000D3602268D36C7D398B43D3642168CB6C38
:10520000E26965692A431343CB642368FF225A622B
:105210002123FE3AE25470BD20330022C25403F031
:10522000D9FABCE72368FF225A622123FB3AE254F1
:105230000120F0E70120EEE7BFFF8FFF002302E02F
:1052400001330A38C0B20928FAD81B01DBB218436F
:1052500070470000F8B504000E002023C35C012B4A
:1052600000D178E020230121C15401330131C15420
:10527000002A43D103689B685B0601D40023F370C6
:105280003078FFF7DBFF05047078FFF7D7FF0002E7
:105290000543B078FFF7D2FF0543F07800040543DB
:1052A0002368CA225A622368773A5A622000FFF7BD
:1052B00052FF071E33D12368284805401D6022682D
:1052C000936827490B40936021688B68F2683069C6
:1052D000024313438B602268D36880218B43D360E1
:1052E00023689B689B0626D52368FF225A622123E8
:1052F000FE3AE254013B0022E2541AE003689B6844
:105300005B0601D40023F37035782D047078000219
:105310000543B0780543F07800040543C0E72368EF
:10532000FF225A622123FB3AE254013B0022E2545D
:1053300001273800F8BD2000FFF7F4FE0028D3D085
:105340002368FF225A622123FB3AE254013B0022E8
:10535000E2540127EDE70227EBE7C0467F7F7F009D
:10536000FFFFFBFF70B504000E002023C35C012B80
:1053700069D020230121C15401330131C154002AD5
:1053800006D17378D90603D510218B430A33737085
:10539000002A31D1F078FFF751FF05047078FFF74C
:1053A0004DFF00020543B078FFF748FF0543307812
:1053B000400305432368CA225A622368773A5A6237
:1053C0002000FFF7C8FE061E21D123681F480540B4
:1053D0005D602268D36880218B43D36023689B681B
:1053E0009B0620D52368FF225A622123FE3AE2540D
:1053F000013B0022E25414E07378B078F5782D0474
:105400001B021D430543307840030543D2E7236860
:10541000FF225A622123FB3AE254013B0022E2546C
:105420000126300070BD2000FFF77CFE0028D9D097
:105430002368FF225A622123FB3AE254013B0022F7
:10544000E2540126EDE70226EBE7C0463FFFFF00EE
:10545000F8B504000D002023C35C012B00D1CBE084
:1054600020230121C15401330131C154002A52D1FA
:1054700003689B685B0601D40023EB70EE69287813
:10548000FFF7DCFE07046878FFF7D8FE0002074349
:10549000A878FFF7D3FE0743E878000407432023EA
:1054A000E85CFFF7CBFE000607433E436B691E43F3
:1054B0006F68AB691F432368CA225A622368773A30
:1054C0005A626A6A80235B009A423DD022689368E0
:1054D0004A490B4093602168CA68FF231A40484B31
:1054E0001343CB60FDF702FD05002368DA689207DD
:1054F0005FD4FDF7FBFC401BFA239B009842F4D9D4
:105500002368FF225A622123FC3AE254013B002225
:10551000E25403206FE003689B685B0601D400231C
:10552000EB702E7836046B781B021E43AB781E435B
:10553000EB781B041E432023EB5C1B061E43EB6928
:105540001E436B691E43B3E7226893682D490B40E5
:1055500093602168CA68FF231A402B4B1343CB602A
:10556000FDF7C4FC05002368DA68D20711D4FDF703
:10557000BDFC401BFA239B009842F4D92368FF220C
:105580005A622123FC3AE254013B0022E2540320F8
:1055900031E0DE6123685F642268916880235B00EC
:1055A0000B4393602268916880235B010B439360F7
:1055B0000EE01E6223689F642268916880239B002E
:1055C0000B4393602268916880239B010B43936097
:1055D0000E4B1968802292021143196099680A43A0
:1055E0009A602368FF225A622123FE3AE254013B6B
:1055F0000022E2540020F8BD0220FCE7FFFDFFFF7F
:105600007FFDFFFFFFFEFFFF7FFEFFFF0004014065
:10561000020993009B185A000F2318408018C0B24B
:1056200070470000F8B50C0003689B6A4B60036884
:105630001B695B045B0C8B6003681B680E490B40A5
:105640001E0C3F20304020701D0A7F273D406570B2
:105650001F40A77040213140E170002A0AD1FFF7B6
:10566000D7FF20702800FFF7D3FF60703800FFF7E6
:10567000CFFFA0700020F8BD7F7F7F0070B50C00C9
:1056800003685B680E490B40180CE070190A1F266E
:105690000E4066703F251D40A5705B0B07210B4037
:1056A0002370002A0AD1FFF7B3FFE0703000FFF744
:1056B000AFFF60702800FFF7ABFFA070002070BD47
:1056C0003FFFFF00036850338900C9180A60704724
:1056D000036850338900C918086870477047000094
:1056E000F0B5C64600B506000C0017001D00FDF71A
:1056F000FDFB8046002F31D033689B682340A342D6
:1057000062D16B1CF8D0002D05D0FDF7EFFB4346AE
:10571000C01AA842F0D932685368E0218B43536025
:1057200032681368A0398B43136080239B01B26AEF
:105730009A423DD051230122F254013B0022F254FF
:10574000032032E03268136820490B40136032684E
:10575000116880239B010B4313601DE033689B6835
:105760002340A34220D06B1CF8D0002D05D0FDF7BC
:10577000BDFB4346C01AA842F0D932685368E02105
:105780008B43536032681368A0398B4313608023C6
:105790009B01B26A9A42D5D051230122F254013BB7
:1057A0000022F254032000E0002004BC9046F0BD2B
:1057B0003268136805490B40136032681168802312
:1057C0009B010B431360B5E70020EEE7FFDFFFFF0F
:1057D00010B5041E3CD05123C35C002B32D05122A3
:1057E0000223A35421680B68402083430B60636845
:1057F000A1680B43E1680B4321690B4361690B43CB
:1058000080218900A06901400B43E1690B43216AB3
:105810000B432168A06A03430B60618B04230B4098
:105820002168606A03434B602368E16A196121685B
:10583000CB6908480340CB61002363650133A3545F
:10584000002010BD50330022C25402F0DDFFC6E735
:105850000120F6E7FFF7FFFF70B504005120205C40
:1058600001280DD082204000656885427DD1A06866
:10587000002800D07BE05130205C222800D078E066
:10588000002900D177E0002A00D176E0002B00D17A
:1058900075E05020205C012800D172E050200125E5
:1058A00025540130205C222802D051203135255466
:1058B000002060652163A386E386A263A387E38754
:1058C000A064E06480239B01A26A9A423AD05123EB
:1058D000E35C222B42D0636C2B4A1A63636C2B4A25
:1058E000DA62636C2A4D5D6321680C31E38F9BB2F1
:1058F000A26B606CFEF736F92268536801210B43F6
:105900005360226C00231363226CD362236C5D63AB
:1059100022680C32E38E9BB2216B206CFEF722F9D9
:1059200023681A68520603D41A6840210A431A6091
:105930002268536802210B43536050230022E25433
:10594000002013E02268136812490B40136022689C
:10595000116880239B010B431360B8E7636C0E4A08
:105960001A63636C0D4ADA62BBE7022070BD022045
:10597000FCE70220FAE70120F8E70120F6E7012022
:10598000F4E70220F2E7C046B1590008B35A000814
:10599000BD590008FFDFFFFFA5590008DB590008CB
:1059A0007047704710B5806AFFF7FBFF10BD704766
:1059B00010B5806AFFF7FBFF10BD704710B5806A15
:1059C0000023C386C38751330122C254436D0F3273
:1059D00013434365FFF7F1FF10BD10B582B06B466E
:1059E0000022DA80846A03681B689B065DD4226803
:1059F000536801218B4353602268536801318B4304
:105A0000536080239B01A26A9A4211D082235B00DB
:105A100062689A4236D00023E38751330122E25470
:105A2000636D002B3DD02000FFF7C7FF02B010BD13
:105A30000A23002201392000FFF752FE002803D07C
:105A4000636D2022134363652368DB689BB26A465B
:105A5000D380D3880A23012201212000FFF740FED2
:105A6000002803D0636D20221343636523689A687E
:105A7000D206CBD5626D02210A43626511225242E1
:105A80009A60C3E7A36880221202934203D0802267
:105A9000D2009342BFD12268136840218B43136028
:105AA000B9E72000FFF77CFFC0E72000FFF778FF91
:105AB000BCE710B582B06B460022DA80846A0368C6
:105AC0001B689B065DD480239B01A26A9A422ED05C
:105AD0000A23002202212000FFF702FE002803D043
